:100000000C945C100C946E100C946E100C946E108A
:100010000C946E100C946E100C946E100C946E1068
:100020000C946E100C946E100C946E100C946E1058
:100030000C946E100C946E100C946E100C946E1048
:100040000C9427110C946E100C946E100C946E107E
:100050000C946E100C946E100C946E100C946E1028
:100060000C946E100C946E10000000002400270009
:100070002A00000800080108010801080208020817
:100080000208030803080308040804080508050813
:1000900005080608060806080708070807080808EC
:1000A000080808080908090809080A080A080A08C7
:1000B0000B080B080B080C080C080D080D080D08A0
:1000C0000E080E080E080F080F080F081008100879
:1000D0001008110811081108120812081208130854
:1000E000130814081408140815081508150816082C
:1000F0001608160817081708170818081808180807
:100100001908190819081A081A081B081B081B08DF
:100110001C081C081C081D081D081D081E081E08B8
:100120001E081F081F081F08200820082008210893
:10013000210822082208220823082308230824086B
:100140002408240825082508250826082608260846
:10015000270827082808280828082908290829081E
:100160002A082A082A082B082B082B082C082C08F8
:100170002C082D082D082E082E082E082F082F08D1
:100180002F083008300830083108310831083208AB
:100190003208330833083308340834083408350883
:1001A000350835083608360836083708370837085E
:1001B000380838083908390839083A083A083A0836
:1001C0003B083B083B083C083C083C083D083D0810
:1001D0003E083E083E083F083F083F0840084008E8
:1001E00040084108410841084208420843084308C2
:1001F000430844084408440845084508450846089B
:100200004608470847084708480848084808490872
:10021000490849084A084A084A084B084B084C084C
:100220004C084C084D084D084D084E084E084E0825
:100230004F084F084F0850085008510851085108FE
:1002400052085208520853085308530854085408D7
:1002500055085508550856085608560857085708AF
:100260005708580858085908590859085A085A0888
:100270005A085B085B085B085C085C085C085D0862
:100280005D085E085E085E085F085F085F0860083A
:100290006008600861086108620862086208630813
:1002A00063086308640864086408650865086608EC
:1002B00066086608670867086708680868086808C5
:1002C000690869086A086A086A086B086B086B089D
:1002D0006C086C086C086D086D086E086E086E0876
:1002E0006F086F086F08700870087008710871084F
:1002F0007208720872087308730873087408740827
:1003000075087508750876087608760877087708FE
:100310007708780878087908790879087A087A08D7
:100320007A087B087B087B087C087C087D087D08B0
:100330007D087E087E087E087F087F088008800888
:100340008008810881088108820882088208830861
:100350008308840884088408850885088508860839
:100360008608870887088708880888088808890811
:1003700089088A088A088A088B088B088B088C08E9
:100380008C088C088D088D088E088E088E088F08C2
:100390008F088F089008900891089108910892089A
:1003A0009208920893089308940894089408950872
:1003B000950895089608960896089708970898084B
:1003C000980898089908990899089A089A089B0823
:1003D0009B089B089C089C089C089D089D089E08FB
:1003E0009E089E089F089F089F08A008A008A108D3
:1003F000A108A108A208A208A208A308A308A408AB
:10040000A408A408A508A508A508A608A608A70882
:10041000A708A708A808A808A808A908A908AA085A
:10042000AA08AA08AB08AB08AB08AC08AC08AD0832
:10043000AD08AD08AE08AE08AE08AF08AF08B0080A
:10044000B008B008B108B108B108B208B208B308E2
:10045000B308B308B408B408B408B508B508B608BA
:10046000B608B608B708B708B708B808B808B90892
:10047000B908B908BA08BA08BA08BB08BB08BC086A
:10048000BC08BC08BD08BD08BE08BE08BE08BF0841
:10049000BF08BF08C008C008C108C108C108C20819
:1004A000C208C208C308C308C408C408C408C508F1
:1004B000C508C508C608C608C708C708C708C808C9
:1004C000C808C908C908C908CA08CA08CA08CB08A0
:1004D000CB08CC08CC08CC08CD08CD08CD08CE0878
:1004E000CE08CF08CF08CF08D008D008D108D1084F
:1004F000D108D208D208D208D308D308D408D40827
:10050000D408D508D508D608D608D608D708D708FD
:10051000D708D808D808D908D908D908DA08DA08D5
:10052000DA08DB08DB08DC08DC08DC08DD08DD08AD
:10053000DE08DE08DE08DF08DF08DF08E008E00884
:10054000E108E108E108E208E208E308E308E3085B
:10055000E408E408E408E508E508E608E608E60833
:10056000E708E708E808E808E808E908E908E9080A
:10057000EA08EA08EB08EB08EB08EC08EC08ED08E1
:10058000ED08ED08EE08EE08EF08EF08EF08F008B8
:10059000F008F008F108F108F208F208F208F30890
:1005A000F308F408F408F408F508F508F508F60867
:1005B000F608F708F708F708F808F808F908F9083E
:1005C000F908FA08FA08FB08FB08FB08FC08FC0815
:1005D000FC08FD08FD08FE08FE08FE08FF08FF08ED
:1005E00000090009000901090109020902090209BB
:1005F0000309030904090409040905090509050992
:100600000609060907090709070908090809090968
:10061000090909090A090A090B090B090B090C093F
:100620000C090D090D090D090E090E090E090F0916
:100630000F091009100910091109110912091209ED
:1006400012091309130914091409140915091509C4
:10065000160916091609170917091809180918099A
:100660001909190919091A091A091B091B091B0972
:100670001C091C091D091D091D091E091E091F0948
:100680001F091F092009200921092109210922091F
:1006900022092309230923092409240925092509F5
:1006A00025092609260927092709270928092809CC
:1006B0002909290929092A092A092A092B092B09A3
:1006C0002C092C092C092D092D092E092E092E097A
:1006D0002F092F0930093009300931093109320950
:1006E0003209320933093309340934093409350927
:1006F00035093609360936093709370938093809FD
:100700003809390939093A093A093A093B093B09D3
:100710003C093C093C093D093D093E093E093E09A9
:100720003F093F094009400940094109410942097F
:100730004209420943094309440944094409450956
:10074000450946094609460947094709480948092C
:100750004809490949094A094A094A094B094B0903
:100760004C094C094C094D094D094E094E094F09D8
:100770004F094F09500950095109510951095209AE
:100780005209530953095309540954095509550984
:10079000550956095609570957095709580958095B
:1007A0005909590959095A095A095B095B095B0931
:1007B0005C095C095D095D095D095E095E095F0907
:1007C0005F095F09600960096109610962096209DD
:1007D00062096309630964096409640965096509B3
:1007E0006609660966096709670968096809680989
:1007F000690969096A096A096A096B096B096C095F
:100800006C096D096D096D096E096E096F096F0933
:100810006F0970097009710971097109720972090A
:1008200073097309730974097409750975097609DF
:1008300076097609770977097809780978097909B5
:1008400079097A097A097A097B097B097C097C098B
:100850007C097D097D097E097E097F097F097F0961
:100860008009800981098109810982098209830936
:10087000830983098409840985098509860986090C
:1008800086098709870988098809880989098909E2
:100890008A098A098B098B098B098C098C098D09B6
:1008A0008D098D098E098E098F098F098F0990098D
:1008B0009009910991099209920992099309930962
:1008C0009409940994099509950996099609970937
:1008D00097099709980998099909990999099A090D
:1008E0009A099B099B099C099C099C099D099D09E2
:1008F0009E099E099E099F099F09A009A009A109B7
:10090000A109A109A209A209A309A309A309A4098C
:10091000A409A509A509A609A609A609A709A70961
:10092000A809A809A809A909A909AA09AA09AB0936
:10093000AB09AB09AC09AC09AD09AD09AD09AE090C
:10094000AE09AF09AF09B009B009B009B109B109E1
:10095000B209B209B309B309B309B409B409B509B5
:10096000B509B509B609B609B709B709B809B8098B
:10097000B809B909B909BA09BA09BB09BB09BB0960
:10098000BC09BC09BD09BD09BD09BE09BE09BF0935
:10099000BF09C009C009C009C109C109C209C2090A
:1009A000C309C309C309C409C409C509C509C509DF
:1009B000C609C609C709C709C809C809C809C909B4
:1009C000C909CA09CA09CB09CB09CB09CC09CC0989
:1009D000CD09CD09CE09CE09CE09CF09CF09D0095D
:1009E000D009D109D109D109D209D209D309D30932
:1009F000D409D409D409D509D509D609D609D60907
:100A0000D709D709D809D809D909D909D909DA09DB
:100A1000DA09DB09DB09DC09DC09DC09DD09DD09B0
:100A2000DE09DE09DF09DF09DF09E009E009E10984
:100A3000E109E209E209E209E309E309E409E40959
:100A4000E509E509E509E609E609E709E709E8092D
:100A5000E809E809E909E909EA09EA09EB09EB0902
:100A6000EB09EC09EC09ED09ED09EE09EE09EE09D7
:100A7000EF09EF09F009F009F109F109F109F209AB
:100A8000F209F309F309F409F409F409F509F50980
:100A9000F609F609F709F709F809F809F809F90953
:100AA000F909FA09FA09FB09FB09FB09FC09FC0928
:100AB000FD09FD09FE09FE09FE09FF09FF09000AFB
:100AC000000A010A010A010A020A020A030A030AC9
:100AD000040A040A050A050A050A060A060A070A9C
:100AE000070A080A080A080A090A090A0A0A0A0A71
:100AF0000B0A0B0A0B0A0C0A0C0A0D0A0D0A0E0A45
:100B00000E0A0F0A0F0A0F0A100A100A110A110A18
:100B1000120A120A120A130A130A140A140A150AEC
:100B2000150A150A160A160A170A170A180A180AC1
:100B3000190A190A190A1A0A1A0A1B0A1B0A1C0A94
:100B40001C0A1C0A1D0A1D0A1E0A1E0A1F0A1F0A69
:100B5000200A200A200A210A210A220A220A230A3C
:100B6000230A240A240A240A250A250A260A260A10
:100B7000270A270A270A280A280A290A290A2A0AE4
:100B80002A0A2B0A2B0A2B0A2C0A2C0A2D0A2D0AB8
:100B90002E0A2E0A2F0A2F0A2F0A300A300A310A8B
:100BA000310A320A320A320A330A330A340A340A60
:100BB000350A350A360A360A360A370A370A380A33
:100BC000380A390A390A3A0A3A0A3A0A3B0A3B0A07
:100BD0003C0A3C0A3D0A3D0A3E0A3E0A3E0A3F0ADA
:100BE0003F0A400A400A410A410A420A420A420AAE
:100BF000430A430A440A440A450A450A460A460A81
:100C0000460A470A470A480A480A490A490A4A0A54
:100C10004A0A4A0A4B0A4B0A4C0A4C0A4D0A4D0A28
:100C20004E0A4E0A4E0A4F0A4F0A500A500A510AFB
:100C3000510A520A520A520A530A530A540A540ACF
:100C4000550A550A560A560A570A570A570A580AA1
:100C5000580A590A590A5A0A5A0A5B0A5B0A5B0A75
:100C60005C0A5C0A5D0A5D0A5E0A5E0A5F0A5F0A48
:100C70005F0A600A600A610A610A620A620A630A1C
:100C8000630A640A640A640A650A650A660A660AEF
:100C9000670A670A680A680A680A690A690A6A0AC2
:100CA0006A0A6B0A6B0A6C0A6C0A6D0A6D0A6D0A95
:100CB0006E0A6E0A6F0A6F0A700A700A710A710A68
:100CC000720A720A720A730A730A740A740A750A3B
:100CD000750A760A760A760A770A770A780A780A0F
:100CE000790A790A7A0A7A0A7B0A7B0A7B0A7C0AE1
:100CF0007C0A7D0A7D0A7E0A7E0A7F0A7F0A800AB4
:100D0000800A800A810A810A820A820A830A830A87
:100D1000840A840A850A850A850A860A860A870A59
:100D2000870A880A880A890A890A8A0A8A0A8B0A2B
:100D30008B0A8B0A8C0A8C0A8D0A8D0A8E0A8E0AFF
:100D40008F0A8F0A900A900A900A910A910A920AD1
:100D5000920A930A930A940A940A950A950A950AA4
:100D6000960A960A970A970A980A980A990A990A77
:100D70009A0A9A0A9B0A9B0A9B0A9C0A9C0A9D0A49
:100D80009D0A9E0A9E0A9F0A9F0AA00AA00AA10A1B
:100D9000A10AA10AA20AA20AA30AA30AA40AA40AEF
:100DA000A50AA50AA60AA60AA70AA70AA70AA80AC0
:100DB000A80AA90AA90AAA0AAA0AAB0AAB0AAC0A93
:100DC000AC0AAD0AAD0AAD0AAE0AAE0AAF0AAF0A66
:100DD000B00AB00AB10AB10AB20AB20AB30AB30A37
:100DE000B30AB40AB40AB50AB50AB60AB60AB70A0B
:100DF000B70AB80AB80AB90AB90AB90ABA0ABA0ADD
:100E0000BB0ABB0ABC0ABC0ABD0ABD0ABE0ABE0AAE
:100E1000BF0ABF0AC00AC00AC00AC10AC10AC20A80
:100E2000C20AC30AC30AC40AC40AC50AC50AC60A52
:100E3000C60AC70AC70AC70AC80AC80AC90AC90A25
:100E4000CA0ACA0ACB0ACB0ACC0ACC0ACD0ACD0AF6
:100E5000CE0ACE0ACE0ACF0ACF0AD00AD00AD10AC9
:100E6000D10AD20AD20AD30AD30AD40AD40AD50A9A
:100E7000D50AD60AD60AD60AD70AD70AD80AD80A6D
:100E8000D90AD90ADA0ADA0ADB0ADB0ADC0ADC0A3E
:100E9000DD0ADD0ADE0ADE0ADE0ADF0ADF0AE00A10
:100EA000E00AE10AE10AE20AE20AE30AE30AE40AE2
:100EB000E40AE50AE50AE60AE60AE60AE70AE70AB4
:100EC000E80AE80AE90AE90AEA0AEA0AEB0AEB0A86
:100ED000EC0AEC0AED0AED0AEE0AEE0AEF0AEF0A56
:100EE000EF0AF00AF00AF10AF10AF20AF20AF30A2A
:100EF000F30AF40AF40AF50AF50AF60AF60AF70AFA
:100F0000F70AF80AF80AF80AF90AF90AFA0AFA0ACC
:100F1000FB0AFB0AFC0AFC0AFD0AFD0AFE0AFE0A9D
:100F2000FF0AFF0A000B000B010B010B020B020B67
:100F3000020B030B030B040B040B050B050B060B39
:100F4000060B070B070B080B080B090B090B0A0B09
:100F50000A0B0B0B0B0B0C0B0C0B0C0B0D0B0D0BDB
:100F60000E0B0E0B0F0B0F0B100B100B110B110BAD
:100F7000120B120B130B130B140B140B150B150B7D
:100F8000160B160B170B170B180B180B180B190B4E
:100F9000190B1A0B1A0B1B0B1B0B1C0B1C0B1D0B21
:100FA0001D0B1E0B1E0B1F0B1F0B200B200B210BF1
:100FB000210B220B220B230B230B240B240B250BC1
:100FC000250B250B260B260B270B270B280B280B95
:100FD000290B290B2A0B2A0B2B0B2B0B2C0B2C0B65
:100FE0002D0B2D0B2E0B2E0B2F0B2F0B300B300B35
:100FF000310B310B320B320B330B330B340B340B05
:10100000350B350B350B360B360B370B370B380BD7
:10101000380B390B390B3A0B3A0B3B0B3B0B3C0BA8
:101020003C0B3D0B3D0B3E0B3E0B3F0B3F0B400B78
:10103000400B410B410B420B420B430B430B440B48
:10104000440B450B450B460B460B470B470B480B18
:10105000480B480B490B490B4A0B4A0B4B0B4B0BEC
:101060004C0B4C0B4D0B4D0B4E0B4E0B4F0B4F0BBC
:10107000500B500B510B510B520B520B530B530B8C
:10108000540B540B550B550B560B560B570B570B5C
:10109000580B580B590B590B5A0B5A0B5B0B5B0B2C
:1010A0005C0B5C0B5D0B5D0B5E0B5E0B5F0B5F0BFC
:1010B000600B600B610B610B620B620B630B630BCC
:1010C000630B640B640B650B650B660B660B670BA0
:1010D000670B680B680B690B690B6A0B6A0B6B0B70
:1010E0006B0B6C0B6C0B6D0B6D0B6E0B6E0B6F0B40
:1010F0006F0B700B700B710B710B720B720B730B10
:10110000730B740B740B750B750B760B760B770BDF
:10111000770B780B780B790B790B7A0B7A0B7B0BAF
:101120007B0B7C0B7C0B7D0B7D0B7E0B7E0B7F0B7F
:101130007F0B800B800B810B810B820B820B830B4F
:10114000830B840B840B850B850B860B860B870B1F
:10115000870B880B880B890B890B8A0B8A0B8B0BEF
:101160008B0B8C0B8C0B8D0B8D0B8E0B8E0B8F0BBF
:101170008F0B900B900B910B910B920B920B930B8F
:10118000930B940B940B950B950B960B960B970B5F
:10119000970B980B980B990B990B9A0B9A0B9B0B2F
:1011A0009B0B9C0B9C0B9D0B9D0B9E0B9E0B9F0BFF
:1011B0009F0BA00BA00BA10BA10BA20BA20BA30BCF
:1011C000A30BA40BA40BA50BA50BA60BA60BA70B9F
:1011D000A70BA80BA80BA90BA90BAA0BAA0BAB0B6F
:1011E000AB0BAC0BAC0BAD0BAD0BAE0BAE0BAF0B3F
:1011F000AF0BB00BB00BB10BB10BB20BB20BB30B0F
:10120000B40BB40BB50BB50BB60BB60BB70BB70BDA
:10121000B80BB80BB90BB90BBA0BBA0BBB0BBB0BAA
:10122000BC0BBC0BBD0BBD0BBE0BBE0BBF0BBF0B7A
:10123000C00BC00BC10BC10BC20BC20BC30BC30B4A
:10124000C40BC40BC50BC50BC60BC60BC70BC70B1A
:10125000C80BC80BC90BC90BCA0BCA0BCB0BCB0BEA
:10126000CC0BCC0BCD0BCD0BCE0BCE0BCF0BD00BB9
:10127000D00BD10BD10BD20BD20BD30BD30BD40B86
:10128000D40BD50BD50BD60BD60BD70BD70BD80B56
:10129000D80BD90BD90BDA0BDA0BDB0BDB0BDC0B26
:1012A000DC0BDD0BDD0BDE0BDE0BDF0BDF0BE00BF6
:1012B000E00BE10BE10BE20BE30BE30BE40BE40BC4
:1012C000E50BE50BE60BE60BE70BE70BE80BE80B92
:1012D000E90BE90BEA0BEA0BEB0BEB0BEC0BEC0B62
:1012E000ED0BED0BEE0BEE0BEF0BEF0BF00BF00B32
:1012F000F10BF10BF20BF30BF30BF40BF40BF50BFF
:10130000F50BF60BF60BF70BF70BF80BF80BF90BCD
:10131000F90BFA0BFA0BFB0BFB0BFC0BFC0BFD0B9D
:10132000FD0BFE0BFE0BFF0BFF0B000C010C010C69
:10133000020C020C030C030C040C040C050C050C31
:10134000060C060C070C070C080C080C090C090C01
:101350000A0C0A0C0B0C0B0C0C0C0C0C0D0C0E0CD0
:101360000E0C0F0C0F0C100C100C110C110C120C9D
:10137000120C130C130C140C140C150C150C160C6D
:10138000160C170C170C180C190C190C1A0C1A0C3B
:101390001B0C1B0C1C0C1C0C1D0C1D0C1E0C1E0C09
:1013A0001F0C1F0C200C200C210C210C220C220CD9
:1013B000230C240C240C250C250C260C260C270CA5
:1013C000270C280C280C290C290C2A0C2A0C2B0C75
:1013D0002B0C2C0C2D0C2D0C2E0C2E0C2F0C2F0C42
:1013E000300C300C310C310C320C320C330C330C11
:1013F000340C340C350C350C360C370C370C380CDF
:10140000380C390C390C3A0C3A0C3B0C3B0C3C0CAC
:101410003C0C3D0C3D0C3E0C3E0C3F0C400C400C7B
:10142000410C410C420C420C430C430C440C440C48
:10143000450C450C460C460C470C480C480C490C16
:10144000490C4A0C4A0C4B0C4B0C4C0C4C0C4D0CE4
:101450004D0C4E0C4E0C4F0C500C500C510C510CB2
:10146000520C520C530C530C540C540C550C550C80
:10147000560C560C570C580C580C590C590C5A0C4D
:101480005A0C5B0C5B0C5C0C5C0C5D0C5D0C5E0C1C
:101490005E0C5F0C600C600C610C610C620C620CE9
:1014A000630C630C640C640C650C650C660C670CB7
:1014B000670C680C680C690C690C6A0C6A0C6B0C84
:1014C0006B0C6C0C6C0C6D0C6E0C6E0C6F0C6F0C52
:1014D000700C700C710C710C720C720C730C730C20
:1014E000740C750C750C760C760C770C770C780CEC
:1014F000780C790C790C7A0C7A0C7B0C7C0C7C0CBB
:101500007D0C7D0C7E0C7E0C7F0C7F0C800C800C87
:10151000810C810C820C830C830C840C840C850C54
:10152000850C860C860C870C870C880C890C890C22
:101530008A0C8A0C8B0C8B0C8C0C8C0C8D0C8D0CEF
:101540008E0C8F0C8F0C900C900C910C910C920CBB
:10155000920C930C930C940C950C950C960C960C89
:10156000970C970C980C980C990C990C9A0C9B0C56
:101570009B0C9C0C9C0C9D0C9D0C9E0C9E0C9F0C23
:101580009F0CA00CA10CA10CA20CA20CA30CA30CF0
:10159000A40CA40CA50CA50CA60CA70CA70CA80CBD
:1015A000A80CA90CA90CAA0CAA0CAB0CAB0CAC0C8B
:1015B000AD0CAD0CAE0CAE0CAF0CAF0CB00CB00C57
:1015C000B10CB20CB20CB30CB30CB40CB40CB50C23
:1015D000B50CB60CB60CB70CB80CB80CB90CB90CF1
:1015E000BA0CBA0CBB0CBB0CBC0CBD0CBD0CBE0CBD
:1015F000BE0CBF0CBF0CC00CC00CC10CC20CC20C8A
:10160000C30CC30CC40CC40CC50CC50CC60CC60C56
:10161000C70CC80CC80CC90CC90CCA0CCA0CCB0C22
:10162000CB0CCC0CCD0CCD0CCE0CCE0CCF0CCF0CEF
:10163000D00CD00CD10CD20CD20CD30CD30CD40CBB
:10164000D40CD50CD50CD60CD70CD70CD80CD80C88
:10165000D90CD90CDA0CDA0CDB0CDC0CDC0CDD0C54
:10166000DD0CDE0CDE0CDF0CDF0CE00CE10CE10C21
:10167000E20CE20CE30CE30CE40CE50CE50CE60CEC
:10168000E60CE70CE70CE80CE80CE90CEA0CEA0CB9
:10169000EB0CEB0CEC0CEC0CED0CED0CEE0CEF0C85
:1016A000EF0CF00CF00CF10CF10CF20CF30CF30C51
:1016B000F40CF40CF50CF50CF60CF60CF70CF80C1D
:1016C000F80CF90CF90CFA0CFA0CFB0CFB0CFC0CEA
:1016D000FD0CFD0CFE0CFE0CFF0CFF0C000D010DB3
:1016E000010D020D020D030D030D040D050D050D79
:1016F000060D060D070D070D080D080D090D0A0D45
:101700000A0D0B0D0B0D0C0D0C0D0D0D0E0D0E0D10
:101710000F0D0F0D100D100D110D120D120D130DDB
:10172000130D140D140D150D150D160D170D170DA8
:10173000180D180D190D190D1A0D1B0D1B0D1C0D73
:101740001C0D1D0D1D0D1E0D1F0D1F0D200D200D3F
:10175000210D210D220D230D230D240D240D250D0A
:10176000250D260D270D270D280D280D290D290DD6
:101770002A0D2B0D2B0D2C0D2C0D2D0D2D0D2E0DA1
:101780002F0D2F0D300D300D310D310D320D330D6C
:10179000330D340D340D350D350D360D370D370D38
:1017A000380D380D390D390D3A0D3B0D3B0D3C0D03
:1017B0003C0D3D0D3D0D3E0D3F0D3F0D400D400DCF
:1017C000410D410D420D430D430D440D440D450D9A
:1017D000450D460D470D470D480D480D490D490D66
:1017E0004A0D4B0D4B0D4C0D4C0D4D0D4D0D4E0D31
:1017F0004F0D4F0D500D500D510D520D520D530DFB
:10180000530D540D540D550D560D560D570D570DC6
:10181000580D580D590D5A0D5A0D5B0D5B0D5C0D91
:101820005C0D5D0D5E0D5E0D5F0D5F0D600D610D5C
:10183000610D620D620D630D630D640D650D650D27
:10184000660D660D670D680D680D690D690D6A0DF1
:101850006A0D6B0D6C0D6C0D6D0D6D0D6E0D6E0DBD
:101860006F0D700D700D710D710D720D730D730D87
:10187000740D740D750D750D760D770D770D780D52
:10188000780D790D7A0D7A0D7B0D7B0D7C0D7C0D1D
:101890007D0D7E0D7E0D7F0D7F0D800D810D810DE7
:1018A000820D820D830D830D840D850D850D860DB2
:1018B000860D870D880D880D890D890D8A0D8B0D7C
:1018C0008B0D8C0D8C0D8D0D8D0D8E0D8F0D8F0D47
:1018D000900D900D910D920D920D930D930D940D11
:1018E000950D950D960D960D970D970D980D990DDB
:1018F000990D9A0D9A0D9B0D9C0D9C0D9D0D9D0DA6
:101900009E0D9F0D9F0DA00DA00DA10DA10DA20D6F
:10191000A30DA30DA40DA40DA50DA60DA60DA70D39
:10192000A70DA80DA90DA90DAA0DAA0DAB0DAC0D03
:10193000AC0DAD0DAD0DAE0DAF0DAF0DB00DB00DCD
:10194000B10DB10DB20DB30DB30DB40DB40DB50D98
:10195000B60DB60DB70DB70DB80DB90DB90DBA0D61
:10196000BA0DBB0DBC0DBC0DBD0DBD0DBE0DBF0D2B
:10197000BF0DC00DC00DC10DC20DC20DC30DC30DF5
:10198000C40DC50DC50DC60DC60DC70DC70DC80DBF
:10199000C90DC90DCA0DCA0DCB0DCC0DCC0DCD0D89
:1019A000CD0DCE0DCF0DCF0DD00DD00DD10DD20D53
:1019B000D20DD30DD30DD40DD50DD50DD60DD60D1D
:1019C000D70DD80DD80DD90DD90DDA0DDB0DDB0DE6
:1019D000DC0DDC0DDD0DDE0DDE0DDF0DDF0DE00DB0
:1019E000E10DE10DE20DE20DE30DE40DE40DE50D79
:1019F000E50DE60DE70DE70DE80DE80DE90DEA0D43
:101A0000EA0DEB0DEB0DEC0DED0DED0DEE0DEE0D0C
:101A1000EF0DF00DF00DF10DF20DF20DF30DF30DD4
:101A2000F40DF50DF50DF60DF60DF70DF80DF80D9D
:101A3000F90DF90DFA0DFB0DFB0DFC0DFC0DFD0D67
:101A4000FE0DFE0DFF0DFF0D000E010E010E020E2C
:101A5000020E030E040E040E050E060E060E070EF1
:101A6000070E080E090E090E0A0E0A0E0B0E0C0EBA
:101A70000C0E0D0E0D0E0E0E0F0E0F0E100E100E84
:101A8000110E120E120E130E140E140E150E150E4C
:101A9000160E170E170E180E180E190E1A0E1A0E15
:101AA0001B0E1B0E1C0E1D0E1D0E1E0E1E0E1F0EDF
:101AB000200E200E210E220E220E230E230E240EA7
:101AC000250E250E260E260E270E280E280E290E70
:101AD0002A0E2A0E2B0E2B0E2C0E2D0E2D0E2E0E38
:101AE0002E0E2F0E300E300E310E320E320E330E01
:101AF000330E340E350E350E360E360E370E380ECA
:101B0000380E390E3A0E3A0E3B0E3B0E3C0E3D0E91
:101B10003D0E3E0E3E0E3F0E400E400E410E420E5A
:101B2000420E430E430E440E450E450E460E460E23
:101B3000470E480E480E490E4A0E4A0E4B0E4B0EEB
:101B40004C0E4D0E4D0E4E0E4F0E4F0E500E500EB3
:101B5000510E520E520E530E530E540E550E550E7C
:101B6000560E570E570E580E580E590E5A0E5A0E44
:101B70005B0E5C0E5C0E5D0E5D0E5E0E5F0E5F0E0C
:101B8000600E610E610E620E620E630E640E640ED4
:101B9000650E660E660E670E670E680E690E690E9C
:101BA0006A0E6B0E6B0E6C0E6C0E6D0E6E0E6E0E64
:101BB0006F0E700E700E710E710E720E730E730E2C
:101BC000740E750E750E760E760E770E780E780EF4
:101BD000790E7A0E7A0E7B0E7B0E7C0E7D0E7D0EBC
:101BE0007E0E7F0E7F0E800E800E810E820E820E84
:101BF000830E840E840E850E850E860E870E870E4C
:101C0000880E890E890E8A0E8B0E8B0E8C0E8C0E12
:101C10008D0E8E0E8E0E8F0E900E900E910E910EDA
:101C2000920E930E930E940E950E950E960E960EA2
:101C3000970E980E980E990E9A0E9A0E9B0E9C0E69
:101C40009C0E9D0E9D0E9E0E9F0E9F0EA00EA10E31
:101C5000A10EA20EA30EA30EA40EA40EA50EA60EF8
:101C6000A60EA70EA80EA80EA90EAA0EAA0EAB0EBF
:101C7000AB0EAC0EAD0EAD0EAE0EAF0EAF0EB00E87
:101C8000B10EB10EB20EB20EB30EB40EB40EB50E4E
:101C9000B60EB60EB70EB80EB80EB90EB90EBA0E15
:101CA000BB0EBB0EBC0EBD0EBD0EBE0EBF0EBF0EDC
:101CB000C00EC00EC10EC20EC20EC30EC40EC40EA4
:101CC000C50EC60EC60EC70EC70EC80EC90EC90E6B
:101CD000CA0ECB0ECB0ECC0ECD0ECD0ECE0ECF0E31
:101CE000CF0ED00ED00ED10ED20ED20ED30ED40EF9
:101CF000D40ED50ED60ED60ED70ED80ED80ED90EBF
:101D0000D90EDA0EDB0EDB0EDC0EDD0EDD0EDE0E86
:101D1000DF0EDF0EE00EE10EE10EE20EE20EE30E4C
:101D2000E40EE40EE50EE60EE60EE70EE80EE80E13
:101D3000E90EEA0EEA0EEB0EEC0EEC0EED0EED0ED9
:101D4000EE0EEF0EEF0EF00EF10EF10EF20EF30EA0
:101D5000F30EF40EF50EF50EF60EF70EF70EF80E66
:101D6000F80EF90EFA0EFA0EFB0EFC0EFC0EFD0E2E
:101D7000FE0EFE0EFF0E000F000F010F020F020FEE
:101D8000030F030F040F050F050F060F070F070FB3
:101D9000080F090F090F0A0F0B0F0B0F0C0F0D0F78
:101DA0000D0F0E0F0F0F0F0F100F110F110F120F3E
:101DB000120F130F140F140F150F160F160F170F06
:101DC000180F180F190F1A0F1A0F1B0F1C0F1C0FCB
:101DD0001D0F1E0F1E0F1F0F200F200F210F220F90
:101DE000220F230F230F240F250F250F260F270F58
:101DF000270F280F290F290F2A0F2B0F2B0F2C0F1E
:101E00002D0F2D0F2E0F2F0F2F0F300F310F310FE2
:101E1000320F330F330F340F350F350F360F370FA7
:101E2000370F380F390F390F3A0F3B0F3B0F3C0F6D
:101E30003D0F3D0F3E0F3E0F3F0F400F400F410F34
:101E4000420F420F430F440F440F450F460F460FFA
:101E5000470F480F480F490F4A0F4A0F4B0F4C0FBF
:101E60004C0F4D0F4E0F4E0F4F0F500F500F510F85
:101E7000520F520F530F540F540F550F560F560F4A
:101E8000570F580F580F590F5A0F5A0F5B0F5C0F0F
:101E90005C0F5D0F5E0F5E0F5F0F600F600F610FD5
:101EA000620F620F630F640F640F650F660F660F9A
:101EB000670F680F680F690F6A0F6A0F6B0F6C0F5F
:101EC0006C0F6D0F6E0F6E0F6F0F700F700F710F25
:101ED000720F720F730F740F740F750F760F760FEA
:101EE000770F780F780F790F7A0F7A0F7B0F7C0FAF
:101EF0007C0F7D0F7E0F7E0F7F0F800F800F810F75
:101F0000820F820F830F840F840F850F860F860F39
:101F1000870F880F880F890F8A0F8A0F8B0F8C0FFE
:101F20008D0F8D0F8E0F8F0F8F0F900F910F910FC1
:101F3000920F930F930F940F950F950F960F970F86
:101F4000970F980F990F990F9A0F9B0F9B0F9C0F4C
:101F50009D0F9D0F9E0F9F0F9F0FA00FA10FA10F11
:101F6000A20FA30FA30FA40FA50FA60FA60FA70FD5
:101F7000A80FA80FA90FAA0FAA0FAB0FAC0FAC0F99
:101F8000AD0FAE0FAE0FAF0FB00FB00FB10FB20F5E
:101F9000B20FB30FB40FB40FB50FB60FB70FB70F23
:101FA000B80FB90FB90FBA0FBB0FBB0FBC0FBD0FE6
:101FB000BD0FBE0FBF0FBF0FC00FC10FC10FC20FAC
:101FC000C30FC30FC40FC50FC60FC60FC70FC80F6F
:101FD000C80FC90FCA0FCA0FCB0FCC0FCC0FCD0F34
:101FE000CE0FCE0FCF0FD00FD00FD10FD20FD30FF8
:101FF000D30FD40FD50FD50FD60FD70FD70FD80FBC
:10200000D90FD90FDA0FDB0FDB0FDC0FDD0FDD0F80
:10201000DE0FDF0FE00FE00FE10FE20FE20FE30F43
:10202000E40FE40FE50FE60FE60FE70FE80FE90F07
:10203000E90FEA0FEB0FEB0FEC0FED0FED0FEE0FCB
:10204000EF0FEF0FF00FF10FF10FF20FF30FF40F8F
:10205000F40FF50FF60FF60FF70FF80FF80FF90F53
:10206000FA0FFA0FFB0FFC0FFD0FFD0FFE0FFF0F16
:10207000FF0F00000000250028002B0004040404CA
:102080000404040402020202020203030303030322
:1020900001020408102040800102040810200102FF
:1020A00004081020000000080002010000030407DB
:1020B000000000000000000011241FBECFEFD8E098
:1020C000DEBFCDBF21E0A0E0B1E001C01D92A23192
:1020D000B207E1F70E9471110C94E2120C94000017
:1020E000EEEAF0E22491EAE9F0E29491E6E8F0E227
:1020F000E491EE2309F43BC0222339F1233091F01F
:1021000038F42130A9F0223001F524B52F7D12C01A
:10211000273091F02830A1F02430B9F420918000CC
:102120002F7D03C0209180002F77209380000DC069
:1021300024B52F7724BD09C02091B0002F7703C0AC
:102140002091B0002F7D2093B000F0E0EE0FFF1F34
:10215000EE58FF4DA591B4912FB7F894EC918111F1
:1021600003C090959E2301C09E2B9C932FBF089582
:10217000CF93DF9390E0FC01E057FF4D2491FC01E9
:10218000E458FF4D8491882361F190E0880F991FF6
:10219000FC01E859FF4FC591D491FC01EE58FF4D69
:1021A000A591B491611109C09FB7F89488812095D9
:1021B00082238883EC912E230BC0623061F49FB799
:1021C000F8943881822F809583238883EC912E2B7D
:1021D0002C939FBF06C08FB7F894E8812E2B2883DD
:1021E0008FBFDF91CF910895449A88B1807188B9EB
:1021F00008958EBD00000DB407FEFDCF8EB5089585
:10220000CF93DF93C82F80E00E94701086E00E9479
:10221000F9108C2F8295880F880F807C0E94F9100E
:10222000C82F8FEF0E94F910D82F81E00E94701004
:102230002C2F30E0322F2227C9018D0F911D23E072
:10224000880F991F2A95E1F7DF91CF9108951F928A
:102250000F920FB60F9211242F933F938F939F935A
:10226000AF93BF9380910E0190910F01A091100147
:10227000B091110130910D0123E0230F2D3720F48F
:102280000196A11DB11D05C026E8230F0296A11DD0
:10229000B11D20930D0180930E0190930F01A09327
:1022A0001001B09311018091090190910A01A09150
:1022B0000B01B0910C010196A11DB11D8093090184
:1022C00090930A01A0930B01B0930C01BF91AF91C1
:1022D0009F918F913F912F910F900FBE0F901F9064
:1022E0001895789484B5826084BD84B5816084BD7E
:1022F00085B5826085BD85B5816085BD80916E00A4
:10230000816080936E0010928100809181008260D4
:102310008093810080918100816080938100809111
:1023200080008160809380008091B1008460809300
:10233000B1008091B00081608093B00080917A00FC
:10234000846080937A0080917A00826080937A0022
:1023500080917A00816080937A0080917A00806811
:1023600080937A001092C1008FE387B98AB18FEF12
:102370008AB980E188B961E08AE00E94B81060E023
:102380008CE00E94B81061E08DE00E94B81061E01E
:102390008BE00E94B8108CB58F7D8CBD8CB58C7F86
:1023A00082608CBD8DB581608DBDCFB7F894809172
:1023B0000001811126C0E6E8F0E28491EAE9F0E24A
:1023C0009491E82FF0E0EE0FFF1FE859FF4FA59121
:1023D000B491EC91E92319F481E00E94701061E05E
:1023E0008AE00E94B8108CB580618CBD8CB5806489
:1023F0008CBD61E08DE00E94B81061E08BE00E942E
:10240000B810809100018F5F80930001CFBF81E001
:102410000E94701018B88FE78BB90E94F41081E009
:1024200088B988E08BB90E94F41082E088B91BB8A3
:102430000E94F41083E088B98DE08BB90E94F410FB
:1024400084E088B980E88BB90E94F410C9E0EC2ED2
:10245000F12CCC24C394D12C12E0912E03E0802ED9
:1024600084E0782E90E0A92E90E0B92E80E00E94C2
:1024700000119C01AFE8B2E00E94C8121C01442484
:10248000552420910501309106014091070150919A
:102490000801AFE6BDEF0E94D712AA27BB27820D25
:1024A000931DA41DB51D8093050190930601A09373
:1024B0000701B09308019C01220F331FA9E9B1EA7B
:1024C0000E94C8120196FC01FF70EE0FFF1FEE582C
:1024D000FF4F05911491892F992782958F7089302C
:1024E000910520F4E701C81BD90B02C0C0E0D0E081
:1024F00081E00E9400119C01AFE8B2E00E94C81286
:102500001C01442455242091010130910201409185
:10251000030150910401AFE6BDEF0E94D712AA2734
:10252000BB27820D931DA41DB51D809301019093BF
:102530000201A0930301B0930401960102C0220F8F
:10254000331FCA95E2F7E901219747E0B695A795B1
:10255000979587954A95D1F718B88BB90E94F410D2
:1025600081E088B91BB90E94F41098B80BB90E9499
:10257000F41088B8DBB90E94F41078B8CBB90E9487
:10258000F410A114B10409F471CF0E9400006ECFC1
:10259000A29FB001B39FC001A39F700D811D1124A4
:1025A000911DB29F700D811D1124911D08950E94EF
:1025B000C812A59F900DB49F900DA49F800D911DF2
:0825C00011240895F894FFCFE7
:107E0000112484B714BE81FFF0D085E080938100F7
:107E100082E08093C00088E18093C10086E0809377
:107E2000C20080E18093C4008EE0C9D0259A86E02C
:107E300020E33CEF91E0309385002093840096BBD3
:107E4000B09BFECF1D9AA8958150A9F7CC24DD24C4
:107E500088248394B5E0AB2EA1E19A2EF3E0BF2EE7
:107E6000A2D0813461F49FD0082FAFD0023811F036
:107E7000013811F484E001C083E08DD089C08234E0
:107E800011F484E103C0853419F485E0A6D080C0E4
:107E9000853579F488D0E82EFF2485D0082F10E0AE
:107EA000102F00270E291F29000F111F8ED06801E7
:107EB0006FC0863521F484E090D080E0DECF843638
:107EC00009F040C070D06FD0082F6DD080E0C81688
:107ED00080E7D80618F4F601B7BEE895C0E0D1E017
:107EE00062D089930C17E1F7F0E0CF16F0E7DF06D8
:107EF00018F0F601B7BEE89568D007B600FCFDCFD4
:107F0000A601A0E0B1E02C9130E011968C91119780
:107F100090E0982F8827822B932B1296FA010C0160
:107F200087BEE89511244E5F5F4FF1E0A038BF0790
:107F300051F7F601A7BEE89507B600FCFDCF97BE46
:107F4000E89526C08437B1F42ED02DD0F82E2BD052
:107F50003CD0F601EF2C8F010F5F1F4F84911BD097
:107F6000EA94F801C1F70894C11CD11CFA94CF0C13
:107F7000D11C0EC0853739F428D08EE10CD085E9AC
:107F80000AD08FE07ACF813511F488E018D01DD067
:107F900080E101D065CF982F8091C00085FFFCCF94
:107FA0009093C60008958091C00087FFFCCF809118
:107FB000C00084FD01C0A8958091C6000895E0E648
:107FC000F0E098E1908380830895EDDF803219F02E
:107FD00088E0F5DFFFCF84E1DECF1F93182FE3DFCA
:107FE0001150E9F7F2DF1F91089580E0E8DFEE27F6
:047FF000FF270994CA
:027FFE00040479
:0400000300007E007B
:00000001FF
